:020000041000EA
:1000000000B5324B212058609868022188439860DF
:10001000D860186158612E4B002199600221596106
:100020000121F02299502B49196001219960352056
:1000300000F044F80222904214D00621196600F024
:1000400034F8196E01211966002018661A6600F04E
:100050002CF8196E196E196E052000F02FF8012189
:100060000842F9D1002199601B49196000215960AB
:100070001A491B48016001219960EB211966A021F2
:10008000196600F012F800219960164914480160C1
:100090000121996001BC002800D000471248134993
:1000A000086003C880F30888084703B5996A0420EC
:1000B0000142FBD001200142F8D103BD02B5186610
:1000C0001866FFF7F2FF186E186E02BD00000240BE
:1000D000000000180000070000035F00212200005C
:1000E000F4000018222000A00001001008ED00E03C
:1000F00000000000000000000000000074B24E7A12
:1001000000200420F7010010C3010010C5010010F9
:10011000C1010010C1010010C1010010C101001097
:10012000C1010010C1010010C1010010C701001081
:10013000C1010010C1010010C9010010CB01001065
:10014000CD010010CD010010CD010010CD01001037
:10015000CD010010CD010010CD010010CD01001027
:10016000CD010010CD010010CD010010CD01001017
:10017000CD010010CD010010CD010010CD01001007
:10018000CD010010CD010010CD010010CD010010F7
:10019000CD010010CD010010CD010010CD010010E7
:1001A000CD010010CD010010CD010010CD010010D7
:1001B000CD010010CD010010CD010010CD010010C7
:1001C00000BE00BE00BE00BE00BE00BEEFF3058054
:1001D000103800BEF2EB8871AC730210C8730210C5
:1001E0003402001090A31AE700201F49086006C8D7
:1001F00081F3088810471D48006800282FD10DA4FE
:100200000ECC002902D000F012F8F9E71849194A7B
:10021000002000E001C19142FCD1174988471749ED
:1002200088471749884700BEFDE701C901C29A42C5
:10023000FBD37047C8730210C00000207C2E002042
:1002400084A10210000004200000042084A10210F8
:10025000001004200010042000000000704709482E
:1002600017F0A8FF0047000008ED00E0000000D0F4
:10027000802E002008C001204D6A0110E508011001
:10028000816B01105756000006005250ABB360530B
:10029000C86C021006005250861C0302D86C021073
:1002A000060052505422A29DE86C021005005250E4
:1002B000DE65F46884A10210F8B5C0460448054B19
:1002C00010B5834203D0044B002B00D0984710BDDB
:1002D0007C2E00207C2E00200000000006480749EC
:1002E000091A8B10C90FC91810B5491003D0044B57
:1002F000002B00D0984710BD7C2E00207C2E0020C3
:100300000000000010B5074C2378002B09D1FFF73F
:10031000D5FF054B002B02D0044800E000BF0123AD
:10032000237010BD803100200000000028D401108F
:10033000054B10B5002B03D00449054800E000BF71
:10034000FFF7CCFF10BDC046000000008431002044
:1003500028D40110F0B54F464646D6469846C0B55B
:1003600086B00E9F0600474489469246BB420CD297
:10037000234B4446C5186B1E9D41063520002900BD
:10038000013414F0AFFFBC42F8D101234246494684
:10039000300000930E9B1AF0A7FC80235B020293AF
:1003A000524653461203DB0113430393434641462F
:1003B0000E9A5B0192061343124A30001A400E9BBC
:1003C0001B050B43134305930F4B524649460493B9
:1003D00002AB1AF0E1FC1098119900220B4B18F0B7
:1003E000AEF918F061FA4B4659004944C900761835
:1003F000C836306006B0E0BCBA46B146A846F0BD8B
:100400000000E0AFE0FF0FFC000006500000F040ED
:1004100070B580254C006418E400D0346D010419D7
:100420002C438025144E2D06256025600C00D50236
:10043000B04200D00834114EE4033540A0262C43CE
:10044000F6051125B4460E4E043136682C4389005A
:100450009501654441182E606960AB6001239340AB
:10046000084AEC600B201360074915F06BF8012176
:100470000B2015F041F870BD00002050FD7F00FFFB
:10048000D4BF012004240050C1000020F0B5DE4696
:1004900057464E464546E0B5A5B092462E9A1A9369
:1004A0009146349A822390464A465B00D358B74A15
:1004B00007001360C0228B4652025521B448339E78
:1004C0001AF07EF8C120012140001AF041F8040022
:1004D0000200B04BB4327634186044211000FF346F
:1004E0000D221AF06DF80D22442120001AF068F850
:1004F000C12040001AF00EF8C1220400A64B44218E
:10050000520018601AF05CF80D2200212000C1345E
:100510001AF056F80D22002120001AF051F8C120DF
:10052000400019F0F7FFC12204009C4B4421520007
:1005300018601AF045F81C22002120001AF040F83B
:10054000C120800019F0E6FFC1220400944B442131
:10055000920018601AF034F80D2200212000C134F6
:100560001AF02EF80D22002120001AF029F8C120DF
:10057000400019F0CFFFC12204008A4B88215200AD
:1005800018601AF01DF81C22002120001AF018F83B
:1005900022001C32100044211C221AF011F8220003
:1005A0007A32FF324421100009221AF009F8C120E2
:1005B000400019F0AFFFC1227B4D2100520028609E
:1005C0001AF004F8C120400019F0A4FFC122210054
:1005D000764C52006860012519F0F8FF200074493C
:1005E0001AF01EFB802123680200AB432360714B8D
:1005F000090680201960196004236F4900060290E3
:100600000391009300213B002000FFF7A3FE01208F
:100610001AF0F6FA694B02001860C123002120008D
:100620005B00FFF7F5FE1CF0C7FE0AA98C462A0006
:100630002368AB432B435D35654423602A700A0071
:100640005F210023521822932393137007AB1D934D
:1006500004AB1C9301AB1B9305AB1F93584C02AB2F
:100660001E932378002BFCD00122329B1A700023AA
:1006700023703378FF2B03D1FE3B2B7000233370A4
:10068000319B029606934B460593534604935B4673
:10069000039343461B680AAA944601935F2363446D
:1006A00000933B482B0023AA22A91CF0ADFE2B7817
:1006B000022B3BD0012BD4D100234A462B700533AB
:1006C000FF33D358314A55211360C02230485202BB
:1006D00019F076FF5F2231980AAB9B181F781490AF
:1006E0003098239B13902F98229912904846189384
:1006F0001A9A1F9B19911190179783CA83C383CAB3
:1007000083C383CA83C383CA83C359460A221E98FC
:1007100019F05CFF3598179B019040460068189AC5
:10072000009019991A4806F025FA9AE700235F22EB
:100730002B7030980AAB9B181B7815902F98239A32
:10074000149048462299179318921D9B1A9A199152
:10075000139083CA83C383CA83C383CA83C383CAF0
:1007600083C351460A221C9819F030FF59460A22C9
:100770001B9819F02BFF40460068179B0090189AB1
:100780001999034806F0EAF86BE7C04684BD0120DA
:10079000C0380020D8BF0120DCBF0120D4BF012019
:1007A000E0BF01200CBF01209CBF012000002050B1
:1007B00054D40110D0102050F194344078BF01205F
:1007C000FEBF0120F0B557464E464546DE460C00BA
:1007D0000121E0B51E000D008BB0049314AB1F780F
:1007E00033015BB225400393631C02959DB20095D3
:1007F0000B40E51C661D0693ABB20D400795B5B2E4
:100800000E400896E61DB446984663460B40099391
:100810004346203F3901C91B7A4FB6B2BB4612028C
:1008200076086D085B08B618AD189B18B246A94645
:100830009846A71D009B261DA51CBFB2B6B2ADB23F
:1008400001917F0876086D085B0864089B18BF1843
:10085000B618AD18A418019A9C465B4659449346B5
:100860000F33844404199B445B46009464468244DD
:1008700086194519B446C7195646814480448022DA
:100880000F20AA46059301947CE02C78039D044038
:100890002C43009D2C705C0022420AD0069C019DD6
:1008A000002C00D09FE02C78039D04402C43019D38
:1008B0002C709C0022420CD0029C002C00D088E0BE
:1008C00054462478039D04402C43A34654465D4679
:1008D0002570DC0022420BD0079C002C7ED14446C0
:1008E0002478039D04402C43A34644465D4625706E
:1008F0001C0122420BD0029C002C54D16446247867
:10090000039D04402C43A34664465D4625705C016C
:1009100022420BD0089C002C4AD14C462478039DDF
:1009200004402C43A3464C465D4625709C01224260
:1009300007D0029C002C40D13C78039D04402C43FE
:100940003C70FF24DB011C4207D0099B002B3AD1ED
:100950003378039C03402343337080235B009B4622
:10096000019B01365B440193009B01375B4400937C
:10097000059B0131FF36FF37D944DC44D844DA44C3
:100980008B4237D000240C570B78002C83DA029C62
:10099000009D002C00D178E72C78049D84432C43E3
:1009A000009D2C7077E764462478049D8443A9E772
:1009B0004C462478049D8443B3E73C78049D8443EB
:1009C0002C433C70BDE73378049C8343234333704E
:1009D000C3E754462478049D844375E7444624784D
:1009E000049D84437FE72C78049D84432C43019D20
:1009F0002C705EE70BB0F0BCBB46B246A946A046E1
:100A0000F0BDC04630D50110F0B557464E464546BC
:100A1000DE46E0B51F0087B010AB1B7805913901A9
:100A200049B2203B8C4619001B015B1A3F49120258
:100A30005C180F31CB180493802398463B00039435
:100A4000674691460F249C4680235B004B449A46A0
:100A5000039B00221E786546059B019626E05908F7
:100A60008C46CC448B4661466646415CA143294393
:100A7000815559465144465C0291A6432E43465443
:100A80000126B346DC446646865D26403E43B346B7
:100A900066465946815502990131465C26403E43DF
:100AA0004654023301329BB2082A2DD001994646A2
:100AB00091400E42F5D001211942D0D1590802913E
:100AC00049448C468346465CE34426403E43B44654
:100AD0005E46614631700299023351444618415CCA
:100AE000B44621403943317059465E460978013297
:100AF000A143294331706146664609789BB2A14300
:100B000029433170082AD1D1F932FF329246039B32
:100B1000049A0133AC460393D1449A4294D107B06E
:100B2000F0BCBB46B246A946A046F0BD30D5011088
:100B3000F0B5DE4657464E464546E0B585B00EACAC
:100B40002488A4460FAC2478A3468024A400A142A4
:100B500059D2A34257D2803CA24254D2A44552D289
:100B600066465D1AA846B41AE717E5197D40474660
:100B7000A146FC173F190192009302916740BD42C4
:100B800048DA994200D8D2E00124CF1AA046921B3D
:100B900002D5023C4A46A0465400E51B8B4232DC9B
:100BA0005B461B015BB201930123D21B52009C46A2
:100BB0000E339A4613005A46C14602949846009C4A
:100BC00000920EE052466710FF18C35D9343009AEF
:100BD0001343C355002D12DD4E4445440134A14258
:100BE00011DB674633022742ECD152466710FF18EB
:100BF000C35D1340019A1343C355002DECDC029BE7
:100C00009B465D44EAE705B0F0BCBB46B246A94648
:100C1000A046F0BD62453FD90124C91AA146931BE5
:100C2000002902DA023C4146A1464C00A046E51AE2
:100C30009445E8DCC91A4B000F215C468C464946B6
:100C400027017CB201949946009C009112E067460E
:100C5000E30F1B195B105B18C15CB9435F46394356
:100C6000C154002D16DD009B4D449A465444013674
:100C7000B242C8DB012331022342E8D16746E30FC9
:100C80001B195B105B18C15C3940019F3943C1548B
:100C9000002DE8DC4544EAE741460124002903DA57
:100CA0000299023CCB1A9846434649465B0003939F
:100CB000591A9445A7DB4D4642465B46521B012517
:100CC0001B01A8465BB20E355200A9466646019F3D
:100CD0009C46029D0094019215E04C46EB0F5B1977
:100CE0005B109B18C25CA2435C462243C25400299D
:100CF00019DD009B9A46019B55449A4651440137A1
:100D0000BE4200DA7FE743463A022B42E5D14C4629
:100D1000EB0F5B195B109B18C25C224064462243B8
:100D2000C2540029E5DC039B9A465144E7E74A4652
:100D30000126002A04DA6246019C023EA21A91466C
:100D40004A46444652009446121B8B4200DA5AE748
:100D50005946090149B200914946091B4900884694
:100D600001218A460E318946614603915946019F09
:100D7000B446029D01910FE04E466C106418015D6F
:100D8000B143019E31430155002A13DD67444244BB
:100D90000135AB4200DA36E7544639022C42EBD13A
:100DA0004E466C106418015D3140009E3143015580
:100DB000002AEBDC03998B465A44E9E7F0B54E462E
:100DC00057464546DE46E0B583B09A460CAB40CB6D
:100DD00090461A78337881460C00002B21D097B2C8
:100DE000002A1ED0B922520090451AD28632002520
:100DF0009346013605E001350A34AAB2A4B2BA42DC
:100E00000FD21A00203A5E2A08D85C4506D8009313
:100E10004246534621004846FFF7D4FC735D002B41
:100E2000E9D103B0F0BCBB46B246A946A046F0BD2E
:100E3000F0B54E4657464546DE46E0B583B09A4685
:100E40000CAB40CB90461A78337881460C00002BCF
:100E500021D097B2002A1ED0B122520090451AD854
:100E60008E3200259346013605E001351434AAB2CE
:100E7000A4B2BA420FD21A00203A5E2A08D85C45C2
:100E800006D800934246534621004846FFF7BCFD72
:100E9000735D002BE9D103B0F0BCBB46B246A94656
:100EA000A046F0BDF0B54546DE4657464E46E0B595
:100EB0008FB0069019980793C44318AB1D78029120
:100EC0000592E40F002D0DD0C317C6185E40002117
:100ED00001239A00D3185B00B34200DD01340131D5
:100EE000A942F6DBA3001C1963000393C30F9A46C3
:100EF000C317C4185C40092C00D8C6E0632C00D886
:100F000094E0FA239B009C4200D2D0E0694B9C42C3
:100F100000D8C9E0684B20009846684B01279946E5
:100F2000674B684D9B4608E0464500D897E04E4524
:100F300000D8A4E05E4500D8A4E06349060017F09D
:100F400093F939000437AE42EED8CD1C08AB9B466E
:100F500039000AAB51442D225846049308931AF0E5
:100F600035FA089B9C46E244584B013D9846514B4C
:100F7000554499462000642117F076F920004E0070
:100F8000642117F071F943469B195B7827006B7059
:100F900043469B5D04002B70023D4F45EAD8FA237F
:100FA0009B009F4252D23034E4B253461C70039BE4
:100FB00008989C46029C03786444A4B2002B26D077
:100FC000B92205995200914221D2FC27404A894614
:100FD000A618069A451C9046079AB6B292467F001C
:100FE00004E00A34A4B20135B4420FD01A00203A0A
:100FF0005E2A08D8BC4206D800934A4653462100D0
:101000004046FFF7DFFB2B78002BEAD10898049BC2
:10101000984204D05B469968013119F0E9FA0FB0A3
:10102000F0BCBB46B246A946A046F0BD08AB9B4605
:101030000AAB0493089353462D22991C58461AF084
:10104000C5F9089B9C46214BE244984643465246CC
:1010500064001B195B78537043461C5DA5E708AB21
:101060009B4605310AAB51442D2258460493089300
:101070001AF0ACF9089B3D009C46E24474E78F1DD2
:101080004D1D63E7CF1D8D1D60E708AB9B460AAB86
:101090000493089353462D22591C58461AF096F98A
:1010A000089B9C46E2447EE7032504274EE7022581
:1010B00003274BE70F2700003F420F007F96980061
:1010C000FFE0F5059F8601001027000064D40110A1
:1010D000DE030000F02210B509024018120155216C
:1010E00019F06EFA10BDC04608B4F0B50D0011003D
:1010F00082B01C236E460400C81D00AFC008FB1858
:10110000C000301A04CB85463B60A847050020008C
:1011100008306E4620607D600F2D10D8012D0BD158
:101120003378237200236560BD464355200002B02A
:10113000F0BC08BC01B01847002DF3D007E0002236
:101140002000391D1AF024F97B682060A3602A0072
:10115000310019F03BFA7D682068E3E7F0B55746A7
:101160004E46DE464546E0B58BB0994614AB1F7837
:1011700015AB1B7802900391169800219A46904671
:1011800018F0B2FF431E98410600002F18D0169B9E
:1011900000255B005B089B463B0001245F469B46A5
:1011A000A3001C196400200018F0B0FF391C18F0CF
:1011B000A3FF431E9841013536185D45F0DB5F46BD
:1011C0007B1C53452CDA534616989D1B04AB9A465C
:1011D00018F0FCFF2F4B009001913A2250462E4907
:1011E000FFF782FF039B04989C46B400A419640097
:1011F00003786444A4B2EDB2002B02D0AFB2002D4C
:1012000027D106AB984204D053469968013119F0B2
:10121000EFF90BB0F0BCBB46B246A946A046F0BD04
:1012200004AB16989A4618F0D1FF1A4B0090019122
:101230003A2250461849FFF757FF039B04989C46F3
:10124000B400A419640003786444A4B2002BD8D07D
:101250006327B92252009045D3D2863200259346A7
:10126000461C05E001350A34AAB2A4B2BA420FD234
:101270001A00203A5E2A08D85C4506D800934246F8
:101280004B4621000298FFF79DFA735D002BE9D1D0
:101290000498B6E760D4011059810110F0B55746A3
:1012A0004E464546DE46E0B51F0085B0BA4602937D
:1012B0000EAB1C888023884691460A78497884467C
:1012C0000902114349BA89B2514401949B009942E1
:1012D00057D843469878DB78A2461B0203435BBA93
:1012E0009BB21800C023504403905B00984248D83A
:1012F00043461A790723D50813404A460135D65C80
:1013000084423ED28F423CD20723002404279B46CE
:10131000C246019B00911B029846029B19E062465F
:101320000F21125C8A43614632430A540134E4B20D
:10133000AC4209D3524658460137D25D0024D50845
:1013400002404846865C01350133009A9BB29342C5
:101350000FD2042EEAD90122580840441A42DED1A5
:1013600062460F21125C0A4031010A4361460A5469
:10137000DCE7019B11000133039A9BB20193934276
:10138000C7D305B0F0BCBB46B246A946A046F0BDE7
:10139000F0B56325CB005B1ACF499B0083B05B1887
:1013A000009316000F231422142101950400FFF767
:1013B00005FD01951F2E00DDA8E08C21C74B1422EE
:1013C0002000009349000F23FFF7F8FC9621C44B3F
:1013D00032222000009349000F230195FFF7EEFC15
:1013E000300017F025FA02000B00002000211BF04E
:1013F00083FF17F035FA0127AF210F233222019026
:10140000490020000097FFF74DFDBE21B54B322269
:10141000009320000F2301954900FFF7CFFC731CB8
:1014200049D0374200D1EDE00F2E00DD0CE1F30F83
:10143000F6183740FF1A0195012F00D137E18221BC
:10144000A94B2000009350220F234900FFF7B6FC60
:101450008221A64B2000009364220F2301954900AE
:10146000FFF7ACFC8221A24B2000009378220F23CF
:1014700001954900FFF7A2FC82219E4B20000093BA
:101480008C220F2301954900FFF798FC82219A4B8B
:1014900020000093A0220F2301954900FFF78EFC46
:1014A0008221964BB422009320000F23019549001E
:1014B000FFF784FC13E08221914B5022200000931F
:1014C00049000F230195FFF779FC82218D4B64229F
:1014D000009320000F2301954900FFF76FFC63255F
:1014E0009622894B200000931E210F230195520064
:1014F000FFF764FCA022854B1E21009320000F23E0
:1015000001955200FFF75AFC03B0F0BD8C21804BCF
:1015100014222000009349000F23FFF74FFC96216F
:101520006F4B32222000009349000F230195FFF7F3
:1015300045FC300017F07CF902000B000020002170
:101540001BF0DAFE17F08CF90123AF213222019053
:10155000009320000E334900FFF7A4FCBE21614B2D
:1015600032222000009349000F230195FFF726FC4B
:1015700082215D4B50222000009349000F230195EA
:10158000FFF71CFC8221594B642220000093490084
:101590000F230195FFF712FC8221554B7822200082
:1015A000009349000F230195FFF708FC8221514B5E
:1015B0008C222000009349000F230195FFF7FEFBCA
:1015C00082214D4BA0222000009349000F2301955A
:1015D000FFF7F4FB8221494BB422009320000F2334
:1015E00001954900FFF7EAFB202E00D177E7822121
:1015F000484BC822009320000F2301954900FFF7B4
:10160000DDFB6CE782213E4B502220000093490015
:101610000F230195FFF7D2FB82213A4B64220093FE
:1016200020000F2301954900FFF7C8FB002E00DCC6
:1016300055E78221374B7822009320000F23019534
:101640004900FFF7BBFB4AE78221334B20000093A0
:1016500050220F2301954900FFF7B0FB8221294B4F
:101660002000009364220F2301954900FFF7A6FB99
:101670008221284B2000009378220F2301954900F6
:10168000FFF79CFB8221254B200000938C220F2327
:1016900001954900FFF792FB8221214BA022009384
:1016A00020000F2301954900FFF788FB17E78221EF
:1016B000194B2000009350220F234900FFF77EFBB7
:1016C0008221104B6422009320000F2301954900D2
:1016D000FFF774FBADE7C046A83E0210A04402101D
:1016E000C8440210C4DA011050450210F4EF011092
:1016F0000CF0011024F001103CF0011054F0011026
:10170000D0440210E44402106CF001109CF001106F
:10171000B4440210F84402100C4502102445021093
:1017200038450210F0B54E464546DE465746E0B510
:1017300087B010AB1B789046994611AB9A7804009D
:101740000592DA7893461A7904925B799A46A02337
:101750009B01C51894235B02C6182800013580221E
:101760005521FF3518F02CFFAE42F6D10A255E2632
:10177000F227CA2344228021200001950096FFF71A
:10178000D7F9CA23A822E421200001950096FFF78B
:10179000CFF9CA23A822E421200001950097FFF782
:1017A000C7F98622CA2380212000520001950097A4
:1017B000FFF7BEF9862236238021200052000195D2
:1017C0000097FFF7B5F93623A8221C2120000195C8
:1017D0000097FFF7ADF93623A8221C2120000195C0
:1017E0000096FFF7A5F936234422802120000195B9
:1017F0000096FFF79DF94B46002B00D0E8E04346EA
:10180000002B00DBA5E10F23019399330093A8225D
:10181000283B80212000FFF78BF9434601333BD161
:10182000059B94259FB29A1C5B466D009EB2ED1AF3
:1018300028235946FF335B1A0F2191468A46ADB2E1
:101840009BB22000019104934946009313002A00A3
:10185000FFF76EF993237A1C904652465B009E1B5D
:10186000B6B2434649462000019200963200FFF787
:101870005FF95246049B3900200001920093320028
:101880003B00FFF755F953462A00019339004346C0
:1018900020000095FFF74CF9AA2120004900FFF72E
:1018A00019FCB42120004900FFF714FC062500268E
:1018B000AA22149B1E212000029301950F2352009F
:1018C0000096FFF74BFCB422159B1E2120000493C9
:1018D000029301950F2352000096FFF73FFC022769
:1018E000AA221C9BC82120000493029301950F2378
:1018F00000975200FFF732FCB4221D9B5200C82112
:101900002000029301950F230097FFF727FC7F2308
:101910005B429C460598E344C01818F0F7FB051C91
:101920005846404318F0F2FB291C071C281C18F0ED
:10193000A6FB011C381C18F08BFB18F047FC16F0B6
:10194000D7FF16F0C9FF011CA54818F084FB18F05A
:101950003DFC02000B000020A2491BF015FD16F013
:10196000BBFF011C071C281C18F089FB18F098FC11
:101970008046584618F0CAFB391C18F080FB18F056
:101980008FFC9749051C404618F065FB0727AA22E3
:10199000B9210F23029052002000019700964900C0
:1019A000FFF7DCFB8E49281C18F055FBB422B92147
:1019B00002900F2320000197009652004900FFF784
:1019C000CDFB07B0F0BCBB46B246A946A046F0BD71
:1019D000012B00D0D1E04346002B00DBEBE00F23CE
:1019E000019399330093A82280212000283BFFF720
:1019F0009FF84346013300D0CEE0049B94259FB26C
:101A00009A1C53466D009EB2ED1A28235146FF33AF
:101A10005B1A0F2191468846ADB29BB2200001911E
:101A200005934946009313002A00FFF781F893239A
:101A30007A1C934642465B009E1BB6B25B46494603
:101A40002000019200963200FFF772F84246059B93
:101A5000390020000192009332003B00FFF768F844
:101A600043462A00019339005B4620000095FFF7AA
:101A70005FF8AA2120004900FFF72CFBB4212000C9
:101A80004900FFF727FB06250026AA22169B1E21E8
:101A900020000593029301950F2352000096FFF753
:101AA0005DFBB422179B1E21200005930293019534
:101AB0000F2352000096FFF751FB0227AA221E9B1C
:101AC000C82120000593029301950F23009752002F
:101AD000FFF744FBB4221F9B5200C8212000029351
:101AE00001950F230097FFF739FB7F235B429C464C
:101AF0000498E244C01818F009FB051C5046404306
:101B000018F004FB291C071C281C18F0B8FA011C4B
:101B1000381C18F09DFA18F059FB16F0E9FE16F083
:101B2000DBFE011C2E4818F096FA18F04FFB02005D
:101B30000B0000202B491BF027FC16F0CDFE011CEA
:101B4000071C281C18F09BFA18F0AAFB8046504688
:101B500010E70C22019228225146FF32049B521AB0
:101B600092B2013300928021A8222000FEF7E0FF0C
:101B700043461F2B00DC8FE652E60F230193993377
:101B80000093A822283B80212000FEF7D1FF434686
:101B90001F2B00DD31E72CE7AA2120004900FFF7C9
:101BA00099FAB42120004900FFF794FA4B46002B24
:101BB00000D068E77AE60C22019228225946FF32CB
:101BC000059B521A92B2013300928021A822200074
:101BD000FEF7AEFF43461F2B00DC4AE70DE7C04689
:101BE0000000A0420000F03F70B56326CA00521A00
:101BF0002C49920082B052181D0000920F2314222B
:101C0000142101960400FFF7D9F8002D3ED1632579
:101C1000254B32221E212000009301950F23FFF750
:101C2000CDF8224B46221E212000009301950F2360
:101C3000FFF7C4F81E4B5A221E2120000093019585
:101C40000F23FFF7BBF81B4B6E221E2120000093D1
:101C500001950F23FFF7B2F8174B822200931E2144
:101C60000F2320000195FFF7A9F8159B9B6D0195A7
:101C7000002B09D0114B0093A0220F231E2120001E
:101C8000FFF79CF802B070BD0D4BF4E796210D4BA9
:101C90001422009320000F2301964900FFF78EF8CD
:101CA000B5E7C046A83E0210043A0210D442021022
:101CB00008430210384302106C430210CC33021068
:101CC00040340210D8370210F0B54746CE4680B5F2
:101CD00087B01E9B17009946632398460193D64B05
:101CE0001422009314210F2304001F9DFFF766F8B0
:101CF000002F0DD0012F00D1B4E1022F00D116E149
:101D0000032F00D18BE207B0C0BCB946B046F0BD8E
:101D100043460193C94B2000009332220F231E211A
:101D2000FFF74CF843468C2106260193C44B200054
:101D3000009332220F234900FFF740F8119B200047
:101D4000029301960F2346221E210097FFF706FA01
:101D50008C21139B20000593029301960F234622AA
:101D600000974900FFF7FAF9129B200005930293B0
:101D700001960F235A221E210097FFF7EFF98C21BD
:101D8000149B20000593029301960F235A2200977B
:101D90004900FFF7E3F943460193AA4B2000009363
:101DA00078220F231E21FFF709F843468C210225D4
:101DB0000193A54B2000009378220F234900FEF7E2
:101DC000FDFF159B20000593029301960F238C22A3
:101DD0001E210095FFF7C2F98C21179B2000059367
:101DE000029301960F238C2200954900FFF7B6F964
:101DF000169B20000593029301960F23A0221E211B
:101E00000095FFF7ABF98C21189B200005930293F6
:101E100001960F23A02200954900FFF79FF9434642
:101E200001938A4B20000093BE220F231E21FEF750
:101E3000C5FF43468C210193854B20000093BE22B1
:101E40000F234900FEF7BAFF199B20000593029368
:101E500001960F23D2221E210095FFF77FF98C21D6
:101E60001B9B20000593029301960F23D22200951D
:101E70004900FFF773F91A9B20000593029301961E
:101E80000F23E6221E210095FFF768F98C211C9B89
:101E90002000029301960F23E62200954900FFF7E8
:101EA0005DF94346822201936A4B200000931E2174
:101EB0000F235200FEF782FF434682228C210193BA
:101EC000654B2000009352000F234900FEF776FF78
:101ED0008C220EAEB37820007F3B01931E210F238E
:101EE00000955200FEF7DEFF8C22337952007F3BD3
:101EF00011002000019300950F23FEF7D3FF9622D7
:101F0000F37820007F3B01931E210F2300955200A0
:101F1000FEF7C8FF96228C21737920007F3B019346
:101F200000950F2352004900FEF7BCFFEBE6434645
:101F300001934A4B32221E21200000930F23FEF70B
:101F40003DFF43468C210193454B322200932000F4
:101F50000F234900FEF732FF202398469C46A844F1
:101F60004625E1444B46042700261B682A001E2113
:101F70002000029301970F230096FFF7EFF84B46DE
:101F80005B682A0050212000029301970F230096DE
:101F9000FFF7E4F84B469B682A0082212000029359
:101FA00001970F230096FFF7D9F84B46DB682A000C
:101FB000B4212000029301970F230096FFF7CEF87B
:101FC00043468C211B682A002000029349000F23FE
:101FD00001970096FFF7C2F84346A5215B682A00E7
:101FE0002000029349000F2301970096FFF7B6F8EF
:101FF0004346BE219B682A002000029349000F231C
:1020000001970096FFF7AAF84346D721DB682A001C
:10201000029320000F23019700964900FFF79EF8D6
:1020200010239C4610353733ADB2FF33E144E04412
:102030009D4297D167E6C046C8DA0110A81D02107C
:10204000181E0210801D0210F01D0210941D0210B7
:10205000041E0210B81D0210281E0210CC1D021012
:102060003C1E021043460193964B200000933222FF
:102070000F231E21FEF7A2FE4B460A2600271B68EF
:102080002000029346220F231E2101960097FFF79E
:1020900065F84B465B68200002935A220F231E21ED
:1020A00001960097FFF75AF84B469B682000029371
:1020B0006E220F231E2101960097FFF74FF84B4623
:1020C000DB682000029382220F231E2101960097D5
:1020D000FFF744F8434601937B4B20000093962280
:1020E0000F231E21FEF76AFE4B461B692000029358
:1020F000AA220F231E2101960097FFF72FF84B46C7
:102100005B6920000293BE220F231E2101960097D7
:10211000FFF724F84B469B6920000293D2220F233D
:102120001E2101960097FFF719F84B46DB69200046
:102130000293E6220F231E2101960097FFF70EF867
:1021400043468C210193614B2000009332220F23E0
:102150004900FEF733FE8C212B68200002934622B3
:102160000F23019600974900FEF7F8FF8C216B685A
:10217000200002935A220F23019600974900FEF790
:10218000EDFF8C21AB68200002936E220F23019695
:1021900000974900FEF7E2FF8C21EB6820000293D4
:1021A00082220F23019600974900FEF7D7FF43468E
:1021B0008C210193464B2000009396220F23490067
:1021C000FEF7FCFD8C212B6920000293AA220F232D
:1021D000019600974900FEF7C1FF8C216B69200032
:1021E0000293BE220F23019600974900FEF7B6FF27
:1021F0008C21AB6920000293D2220F230196009715
:102200004900FEF7ABFF8C21EB69E6220293200028
:102210000F23019600974900FEF7A0FF73E54346A0
:1022200001932C4B32221E21200000930F23FEF736
:10223000C5FD43468C210193274B4E460093322225
:102240000F2320004900FEF7B9FD21362135FF3666
:10225000FF35433701CE214917F011FF17F0B6FFC4
:102260001F4A204B16F04DFA16F036FB072399460D
:102270000193053B3A0098461E21029000932000EE
:102280000D33FEF76BFF01CD144917F0F8FE17F080
:102290009DFF134A134B16F034FA16F01DFB4B4604
:1022A0008C21019343463A000290009320000D33A5
:1022B0004900FEF753FFA3231037BFB25B009F42D4
:1022C000C8D120E5801E0210901E0210A01E021030
:1022D000B01E0210E01D0210501E02100000344318
:1022E000182D4454FB21094070B50400150086B038
:1022F000002A01D006B070BD06264621FEF7EAFE90
:102300000D9B20000293019600950F2346221E216B
:10231000FEF724FF8C210F9B462220000593029399
:1023200001960F2300954900FEF718FF20005A215F
:10233000FEF7D0FE0E9B20000593029301960095B8
:102340000F235A221E21FEF709FF8C21109B5A22CF
:1023500020000593029301960F2300954900FEF794
:10236000FDFE20008C21FEF7B5FE119B02352000FA
:102370000593029301960F238C221E210095FEF7F0
:10238000EDFE8C21139B8C22200005930293019675
:102390000F2300954900FEF7E1FE2000A021FEF783
:1023A00099FE129B20000593029301960F23A02211
:1023B0001E210095FEF7D2FE8C21149BA022200046
:1023C0000593029301960F2300954900FEF7C6FE80
:1023D0002000D221FEF77EFE159B2000059302937C
:1023E00001960F23D2221E210095FEF7B7FE8C2105
:1023F000179BD22220000593029301960F2300958C
:102400004900FEF7ABFE2000E621FEF763FE169BB7
:1024100020000593029301960F23E6221E210095CA
:10242000FEF79CFE8C21189BE62220000293019669
:102430000F2300954900FEF791FE8C2120004900F2
:10244000FEF748FE8C220AAEB37820007F3B019352
:102450001E210F2300955200FEF724FD8C223379B4
:1024600052007F3B11002000019300950F23FEF7DF
:1024700019FD962120004900FEF72CFE9622F378E4
:1024800020007F3B01931E210F2300955200FEF791
:1024900009FD96228C21737920007F3B01930095E2
:1024A0000F2352004900FEF7FDFC23E7F0B5C646B6
:1024B00004001D00632300B5C800401A494980008C
:1024C00082B04018160098460193009014221421FF
:1024D0002000543B179FFEF771FC002D00D074E0E4
:1024E0006325414B32221E212000009301950F23CA
:1024F000FEF764FC3D4B46221E212000009301950F
:102500000F23FEF75BFC3A4B5A221E21200000935A
:1025100001950F23FEF752FC364B6E221E21200040
:10252000009301950F23FEF749FC334B82221E21B5
:102530002000009301950F23FEF740FC2F4B9622BD
:102540001E212000009301950F23FEF737FC2C4B32
:10255000B4221E212000009301950F23FEF72EFCCC
:102560007B6EB42201930123A021984620000093A2
:102570000E33FEF797FC8C21224BB42220000093EF
:1025800049000F230195FEF719FCBB6ECD21019385
:102590004346B422009320000E334900FEF782FC2C
:1025A000194BB422009301950F23002E07D10A2165
:1025B0002000FEF703FC02B080BCB846F0BD8221CB
:1025C00020004900FEF7FAFBF5E743469621019308
:1025D0000E4B1422009320000F234900FEF7EEFB60
:1025E0007EE7C046A83E02106834021090EB01104E
:1025F000B8EB0110E8EB011018EC011044EC0110ED
:10260000A8ED0110B8ED01108CEB0110D8370210C5
:10261000F0B5C64604001D00632300B5C800401A8B
:102620004549800082B040181700984601930090F9
:10263000142214212000543B179EFEF7BFFB002DEF
:1026400000D06DE063253D4B32221E212000009317
:1026500001950F23FEF7B2FB394B46221E212000C5
:10266000009301950F23FEF7A9FB364B5A221E213A
:102670002000009301950F23FEF7A0FB324B6E2242
:102680001E212000009301950F23FEF797FB2F4B8F
:1026900082221E212000009301950F23FEF78EFB5E
:1026A0002B4BA0221E212000009301950F23FEF743
:1026B00085FBA823F358A02201930123A02198466B
:1026C000200000930E33FEF7EDFB8C21214BA0225E
:1026D0002000009349000F230195FEF76FFBAC2308
:1026E000F358CD2101934346A022009320000E33DE
:1026F0004900FEF7D7FB184BA022009301950F234A
:10270000002F07D10A212000FEF758FB02B080BC41
:10271000B846F0BD822120004900FEF74FFBF5E7E7
:102720004346962101930D4B1422009320000F2362
:102730004900FEF743FB85E7A83E0210683402100B
:1027400098340210C8340210F434021024350210F8
:10275000A8ED0110B8ED01108CEB0110D837021074
:10276000F0B5C64604001D00632300B5C800401A3A
:102770004549800082B040181700984601930090A8
:10278000142214212000543B179EFEF717FB002D46
:1027900000D06DE063253D4B32221E2120000093C6
:1027A00001950F23FEF70AFB394B46221E2120001C
:1027B000009301950F23FEF701FB364B5A221E2191
:1027C0002000009301950F23FEF7F8FA324B6E229A
:1027D0001E212000009301950F23FEF7EFFA2F4BE7
:1027E00082221E212000009301950F23FEF7E6FAB6
:1027F0002B4BA0221E212000009301950F23FEF7F2
:10280000DDFA8023F358A02201930023A0219846EB
:10281000200000930F33FEF745FB8C21214BA022B3
:102820002000009349000F230195FEF7C7FA842387
:10283000F358CD2101934346A022009320000F338B
:102840004900FEF72FFB184BA022009301950F23A0
:10285000002F07D10A212000FEF7B0FA02B080BC99
:10286000B846F0BD822120004900FEF7A7FAF5E73F
:102870004346962101930D4B1422009320000F2311
:102880004900FEF79BFA85E7A83E02106834021063
:10289000983A0210C83A0210F83A0210283B021087
:1028A000A8ED0110B8ED01108CEB0110D837021023
:1028B000F0B5C64604001D00632300B5C800401AE9
:1028C0004549800082B04018170098460193009057
:1028D000142214212000543B179EFEF76FFA002D9E
:1028E00000D06DE063253D4B32221E212000009375
:1028F00001950F23FEF762FA394B46221E21200074
:10290000009301950F23FEF759FA364B5A221E21E8
:102910002000009301950F23FEF750FA324B6E22F0
:102920001E212000009301950F23FEF747FA2F4B3D
:1029300082221E212000009301950F23FEF73EFA0C
:102940002B4BA0221E212000009301950F23FEF7A0
:1029500035FA8823F358A02201930023AA21984630
:10296000200000930F33FEF79DFA8C21214BA0220B
:102970002000009349000F230195FEF71FFA8C23D6
:10298000F358D22101934346A022009320000F3335
:102990004900FEF787FA184BA022009301950F23F8
:1029A000002F07D10A212000FEF708FA02B080BCF0
:1029B000B846F0BD822120004900FEF7FFF9F5E797
:1029C0004346962101930D4B1422009320000F23C0
:1029D0004900FEF7F3F985E7A83E021068340210BB
:1029E000983A0210443B02106C3B0210A03B0210CC
:1029F00060FE011070FE01108CEB0110D837021040
:102A0000F0B5C64604001D00632300B5C800401A97
:102A10004549800082B04018170098460193009005
:102A2000142214212000543B179EFEF7C7F9002DF5
:102A300000D06DE063253D4B32221E212000009323
:102A400001950F23FEF7BAF9394B46221E212000CB
:102A5000009301950F23FEF7B1F9364B5A221E2140
:102A60002000009301950F23FEF7A8F9324B6E2248
:102A70001E212000009301950F23FEF79FF92F4B95
:102A800082221E212000009301950F23FEF796F964
:102A90002B4BA0221E212000009301950F23FEF74F
:102AA0008DF9B023F358A02201930123AA2198465F
:102AB000200000930E33FEF7F5F98C21214BA02264
:102AC0002000009349000F230195FEF777F9B42306
:102AD000F358D22101934346A022009320000E33E5
:102AE0004900FEF7DFF9184BA022009301950F2350
:102AF000002F07D10A212000FEF760F902B080BC48
:102B0000B846F0BD822120004900FEF757F9F5E7ED
:102B10004346962101930D4B1422009320000F236E
:102B20004900FEF74BF985E7A83E02106834021011
:102B300098340210C83402104035021024350210B7
:102B400060FE011070FE01108CEB0110D8370210EE
:102B5000F0B5C64604001D00632300B5C800401A46
:102B60004549800082B040181700984601930090B4
:102B7000142214212000543B089EFEF71FF9002D5B
:102B800000D06DE063253D4B32221E2120000093D2
:102B900001950F23FEF712F9394B46221E21200022
:102BA000009301950F23FEF709F9364B5A221E2197
:102BB0002000009301950F23FEF700F9324B6E229F
:102BC0001E212000009301950F23FEF7F7F82F4BED
:102BD00082221E212000009301950F23FEF7EEF8BC
:102BE0002B4BA0221E212000009301950F23FEF7FE
:102BF000E5F8D023F358A0220193002396219846AC
:102C0000200000930F33FEF74DF98C21214BA022B9
:102C10002000009349000F230195FEF7CFF8D4233D
:102C2000F358CD2101934346A022009320000F3397
:102C30004900FEF737F9184BA022009301950F23A6
:102C4000002F07D10A212000FEF7B8F802B080BC9F
:102C5000B846F0BD822120004900FEF7AFF8F5E745
:102C60004346962101930D4B1422009320000F231D
:102C70004900FEF7A3F885E7A83E02106834021069
:102C800064EC011090EC0110BCEC0110E8EC0110B8
:102C900098430210E4EF01108CEB0110D8370210BA
:102CA000F0B5C64604001D00632300B5C800401AF5
:102CB0004549800082B04018170098460193009063
:102CC000142214212000543B089EFEF777F8002DB3
:102CD00000D06DE063253D4B32221E212000009381
:102CE00001950F23FEF76AF8394B46221E2120007A
:102CF000009301950F23FEF761F8364B5A221E21EF
:102D00002000009301950F23FEF758F8324B6E22F6
:102D10001E212000009301950F23FEF74FF82F4B43
:102D200082221E212000009301950F23FEF746F812
:102D30002B4BA0221E212000009301950F23FEF7AC
:102D40003DF8E423F358A022019302238C219846F6
:102D5000200000930D33FEF7A5F88C21214BA02213
:102D60002000009349000F230195FEF727F8E82380
:102D7000F358C82101934346A022009320000D334D
:102D80004900FEF78FF8184BA022009301950F23FE
:102D9000002F07D10A212000FEF710F802B080BCF6
:102DA000B846F0BD822120004900FEF707F8F5E79C
:102DB0004346962101930D4B1422009320000F23CC
:102DC0004900FDF7FBFF85E7A83E021068340210BA
:102DD000E83702101838021048380210783802100C
:102DE00098430210E4EF01108CEB0110D837021069
:102DF000F0B5632604000227CB005B1AEB499B0069
:102E000083B05B1814221421009301960F23179DA1
:102E1000FDF7D4FFE64B32221E21200000930196DD
:102E20000F23FDF7CBFFE34B46221E21200000932A
:102E300001960F23FDF7C2FFDF4B5A221E2120000F
:102E4000009301960F23FDF7B9FFDC4B6E221E2184
:102E50002000009301960F23FDF7B0FFD84B82228C
:102E60001E212000009301960F23FDF7A7FFD54BED
:102E700096221E212000009301960F23FDF79EFF4E
:102E80006B6E32225A212000019300970F23FEF728
:102E900009F8AB6E46225A212000019300970F23B8
:102EA000FEF700F8A823EB585A225A21200001937C
:102EB00000970F23FDF7F6FFAC23EB586E225A2143
:102EC0002000019300970F23FDF7ECFF8023EB58C0
:102ED00082225A212000019300970F23FDF7E2FF81
:102EE0008423EB5896225A212000019300970F2348
:102EF000FDF7D8FFB44B32229621200000930196B3
:102F00000F23FDF75BFFB14B462296212000009373
:102F100001960F23FDF752FFAD4B5A229621200058
:102F2000009301960F23FDF749FFAA4B6E229621CD
:102F30002000009301960F23FDF740FFA64B82224D
:102F400096212000009301960F23FDF737FFA34B36
:102F5000962296212000009301960F23FDF72EFF65
:102F60008823EB583222D2212000019300970F23AF
:102F7000FDF798FF8C23EB584622D22120000193C5
:102F800000970F23FDF78EFFB023EB585A22D22172
:102F90002000019300970F23FDF784FFB423EB5823
:102FA0006E22D2212000019300970F23FDF77AFFB4
:102FB000D023EB588222D2212000019300970F23C7
:102FC000FDF770FFE423EB589622D22120000193F5
:102FD00000970F23FDF766FF8C21814B32222000E2
:102FE000009349000F230196FDF7E8FE8C217D4BED
:102FF00046222000009349000F230196FDF7DEFED4
:103000008C21794B5A222000009349000F2301960E
:10301000FDF7D4FE8C21754B6E22200000934900F1
:103020000F230196FDF7CAFE8C21714B82222000EE
:10303000009349000F230196FDF7C0FE8C216D4BD4
:1030400096222000009349000F230196FDF7B6FE5B
:10305000AF21EB68322201332000019349000F2396
:103060000097FDF71FFFAF212B6946220133200097
:10307000019349000F230097FDF714FFAF212B6A3E
:103080005A222000019349000F230097FDF70AFF01
:10309000AF216B6A6E222000019349000F23009735
:1030A000FDF700FFD423AF21EB58822220000193CB
:1030B00049000F230097FDF7F5FEE823AF21EB58F9
:1030C00096222000019349000F230097FDF7EAFEA6
:1030D000494BD2221E212000009301960F23FDF7B9
:1030E0006DFE2B6CD222019301236E2100932000F0
:1030F0000E33FDF7D7FEAB6D0196002B0FD03F4B83
:103100000093E6220F231E212000FDF757FE2B78A7
:10311000062B00D99CE03A4A9B00D3589F46394B76
:10312000EEE763230193384B0093FA220F231E210D
:103130002000FDF743FEF823EB58052B00D983E070
:10314000324A9B00D3589F4663230193304B87221A
:1031500000931E210F2320005200FDF72FFE03B025
:10316000F0BD632301932B4BF1E7632301932A4BBB
:10317000EDE763230193294BE9E763230193284B90
:10318000E5E763230193274BE1E763230193264B94
:10319000CAE763230193254BC6E763230193244BBE
:1031A000C2E763230193234BBEE7C046A83E02104B
:1031B000F0DA0110F8DA011000DB011008DB011071
:1031C00010DB011018DB011020DB011028DB0110DF
:1031D00030DB011038DB011040DB011048DB01104F
:1031E00050DB011058DB011060DB011068DB0110BF
:1031F00070DB011078DB011080DB0110CC33021092
:1032000088DB01104034021004340210A4DB0110EA
:10321000A03702109037021080370210703702106A
:103220005C370210B837021028340210EC33021059
:10323000103402103434021063230193064B73E7F9
:1032400063230193054B6FE763230193044B7EE7F0
:1032500063230193034B67E7F83302101C34021019
:10326000E8390210D833021070B56326CA00521A2A
:103270003F49920082B052181D0000920F23142281
:10328000142101960400FDF799FD002D3ED1632520
:10329000384B32221E212000009301950F23FDF7A9
:1032A0008DFD354B46221E212000009301950F23F2
:1032B000FDF784FD314B5A221E2120000093019519
:1032C0000F23FDF77BFD2E4B6E221E212000009365
:1032D00001950F23FDF772FD2A4B82221E2120004B
:1032E000009301950F23FDF769FD274BA022009362
:1032F0001E210F2320000195FDF760FD159B1B7813
:10330000062B32D8214A9B00D3589F469621204B4A
:103310001422009320000F2301964900FDF74EFD73
:10332000B5E7632301931B4B0093A0220F23C82111
:103330002000FDF743FD02B070BD63230193164BDF
:10334000F2E763230193154BEEE763230193144BDC
:10335000EAE763230193134BE6E763230193124BE0
:10336000E2E763230193114BDEE7114B0195DBE7A5
:10337000A83E0210043A021070350210A435021063
:10338000D435021000360210C81E0210BCDB01103A
:10339000D8370210C0380210F0380210A8380210D6
:1033A000D038021000390210B0380210E038021094
:1033B0009838021070B56326CA00521A3349920039
:1033C00082B052181D0000920F231422142101967E
:1033D0000400FDF7F3FC002D4CD163252C4B20009D
:1033E000009332220F231E210195FDF7E7FC294BA4
:1033F0002000009346220F231E210195FDF7DEFCDD
:10340000254B200000935A220F231E210195FDF722
:10341000D5FC224B200000936E220F231E21019524
:10342000FDF7CCFC1E4B2000009382220F231E21AF
:103430000195FDF7C3FC1B4B2000009396220F2340
:103440001E210195FDF7BAFC174B20000093B42212
:103450000F231E210195FDF7B1FC159BB4221B6CB7
:10346000BE2101930023200000930F33FDF71AFDC6
:1034700002B070BD96210D4B1422009320000F2343
:1034800001964900FDF79AFCA7E7C046A83E021046
:10349000043A02101039021040390210703902103B
:1034A000A0390210D0390210C81E0210D8370210FD
:1034B000F0B563260400002783B0434B179DBE225E
:1034C0001E21009301960F23FDF778FCEB68BE22C6
:1034D000013364212000019300970F23FDF7E2FCE4
:1034E0008C213A4BBE222000009349000F23019605
:1034F000FDF764FCAF212B69BE220133200001934C
:1035000049000F230097FDF7CDFC314BD2221E213D
:103510002000009301960F23FDF750FC2B6AD22266
:1035200078212000019300970F23FDF7BBFC8C212D
:10353000284BD2222000009349000F230196FDF76B
:103540003DFCB9216B6AD222019320000F23009722
:103550004900FDF7A7FCEB68042B25D02A69042A53
:1035600015D063251C4B20000093FA220F231E2147
:103570000195FDF723FC9B22184B1E210093200090
:103580000F2301955200FDF719FC03B0F0BD9343E2
:10359000012BE6D0124B1E21009320000F23019631
:1035A000E232FDF70BFCDCE72B69012BD9D0043BA1
:1035B000012BD6D90B4BE62200931E210F232000AE
:1035C0000196FDF7FBFBCCE7783C0210803C021033
:1035D000883C0210943C02103CFE01104CFE01108D
:1035E000C83C0210A03C0210F0B5DE4657464546E6
:1035F0004E468721E0B5490083B00400FDF76AFD1F
:10360000912120004900FDF765FD632587226C4B61
:103610001E212000009352009A4601950F23FDF7CA
:10362000CDFB9122674B1E210093984620000F236B
:10363000019552000FAEFDF7C1FB77787B0600D5F0
:103640008EE0BB0600D598E0632587228C215E4B77
:103650002000009352004900994601950F23FDF781
:10366000ADFBB379872201939B21022320009B4667
:10367000009352000D334900FDF714FC91228C2178
:10368000524F0F2320005200490001950097FDF78B
:1036900095FBF379912201939B215B465200200018
:1036A000009349000D33FDF7FDFBA52120004900E3
:1036B000FDF710FDAF2120004900FDF70BFD53463B
:1036C000A5221E212000009352000F230195FDF733
:1036D00075FB4346AF2200931E210F232000019566
:1036E0005200FDF76BFB0CAB5E7873065DD4B3063E
:1036F0004FD46323A522984601938C214B4620008A
:10370000009352000F234900FDF758FB0225A52224
:103710009B210CAEB3792000019300950F2352003A
:103720004900FDF7BFFB4346AF228C2120000193E7
:103730000097543B52004900FDF740FBAF229B210C
:10374000F3792000019300950F2352004900FDF703
:10375000A9FB03B0F0BCBB46B246A946A046F0BDEB
:1037600087221B4B4621009320000F230195520016
:10377000FDF724FBBB0600D466E763239122019387
:10378000134B4621009320000F235200FDF716FB38
:103790005AE76323AF2201930D4B4621009320008B
:1037A0000F235200FDF70AFBA3E7A522084B462191
:1037B000009320000F2301955200FDF7FFFA96E7D2
:1037C000D8DB0110DCDB0110E8DB0110ECDB0110C1
:1037D000E0DB0110F0B5C64604001D00632300B510
:1037E000C800401AD749800084B040181700984696
:1037F00001930090142214212000543B199EFDF7E0
:10380000DDFA002D00D07EE06325CF4B32221E2151
:103810002000009301950F23FDF7D0FACB4B4622F1
:103820001E212000009301950F23FDF7C7FAC84B16
:1038300064221E212000009301950F23FDF7BEFA9C
:10384000F36864220133019301235021984620003C
:1038500000930E33FDF726FB8C21BE4B6422200023
:10386000009349000F230195FDF7A8FA336AAF21B1
:103870000193434664222000009349000E33FDF774
:1038800011FBB54BFA221E212000009301950F2356
:10389000FDF794FA9B22B14B520000931E210F2397
:1038A00020000195FDF78AFAAD4B64220093019543
:1038B0000F23002F21D10A212000FDF77FFAF368A2
:1038C000062B16D86325A74A9B00D35801959F461F
:1038D000A54B822200931E210F232000FDF76EFAD4
:1038E000A24B0195009396220F231E212000FDF785
:1038F00065FA04B080BCB846F0BD822120004900C2
:10390000FDF75CFADBE7434696210193984B1422BE
:10391000009320000F234900FDF750FA74E7954B00
:1039200082221E21200000930F23FDF747FA924BBD
:1039300096221E212000009301950F23FDF73EFAE9
:103940008E4BAA221E212000009301950F23FDF724
:1039500035FA8B4BBE2200931E210F2320000195C8
:10396000FDF72CFA336A4F2BC3DC864B01953DE003
:10397000854B82221E21200000930F23FDF71EFAA3
:10398000824B96221E212000009301950F23FDF704
:1039900015FA7F4BAA221E212000009301950F23C8
:1039A000FDF70CFA7B4BBE221E21200000930195EF
:1039B0000F23FDF703FA306A16F0A8FB764916F0DC
:1039C0005EFB764916F044FB062301930023029028
:1039D0000093BE228C2120000F33FDF7BFFB33691B
:1039E000042B00D085E7632301936D4B0093D22213
:1039F0000F231E212000FDF7E1F97AE7694B8222AF
:103A000000931E210F232000FDF7D8F93369042B02
:103A100000D06EE7624B019564E7634B82221E2162
:103A2000200000930F23FDF7C9F9604B9622009305
:103A30001E210F2320000195FDF7C0F93369042BE7
:103A400000D056E7564BAA2200931E210F232000D8
:103A50000195FDF7B3F94CE7554B82221E2120005A
:103A600000930F23FDF7AAF9336AC82101930023BD
:103A700082222000009349000F33FDF713FA4D4BCB
:103A800096221E212000009301950F23FDF796F941
:103A9000494BAA2200931E210F2320000195FDF718
:103AA0008DF9336A4F2B9ADC364BBE2200931E21D0
:103AB0000F2320000195FDF781F990E73F4B82220B
:103AC0001E21200000930F23FDF778F9374B962233
:103AD0001E212000009301950F23FDF76FF9384B4D
:103AE000AA221E212000009301950F23FDF766F9FD
:103AF000344BBE2200931E210F2320000195FDF7B9
:103B00005DF9336A4F2B12DD3369012B00D1F0E6EA
:103B1000043B012B00D8ECE6632301932A4BE622F9
:103B200000931E210F232000FDF748F9E1E6154B15
:103B3000D22200931E210F2320000195FDF73EF9AC
:103B4000E2E7C046A83E021068340210A443021007
:103B5000E0ED0110E8ED01103CFE01104CFE0110FB
:103B60008CEB0110F0DB011018EE011048EE011093
:103B7000D8370210FCFC01102CFD011048FD01108B
:103B800078FD011004EF0110A8FD0110D8FD01100F
:103B900004FE011030FE01103480373CC217E63EAF
:103BA00088ED0110F0ED011078EE0110ACEE01107F
:103BB000DCEE011018FC011048FC011074FC01102F
:103BC000A4FC0110D4FC0110A03C0210F0B5C646C4
:103BD00004001D00632300B5C800401AD7498000C7
:103BE00084B04018170098460193009014221421C5
:103BF0002000543B199EFDF7E1F8002D00D07EE037
:103C00006325CF4B32221E212000009301950F2304
:103C1000FDF7D4F8CB4B46221E21200000930195DE
:103C20000F23FDF7CBF8C84B64221E212000009320
:103C300001950F23FDF7C2F8336964220133019324
:103C4000012350219846200000930E33FDF72AF9F6
:103C50008C21BE4B64222000009349000F23019564
:103C6000FDF7ACF8736AAF2101934346642220004C
:103C7000009349000E33FDF715F9B54BFA221E21CA
:103C80002000009301950F23FDF798F89B22B14B7C
:103C9000520000931E210F2320000195FDF78EF89E
:103CA000AD4B6422009301950F23002F21D10A21EF
:103CB0002000FDF783F83369062B16D86325A74A41
:103CC0009B00D35801959F46A54B822200931E214D
:103CD0000F232000FDF772F8A24B01950093962266
:103CE0000F231E212000FDF769F804B080BCB84600
:103CF000F0BD822120004900FDF760F8DBE7434674
:103D000096210193984B1422009320000F23490021
:103D1000FDF754F874E7954B82221E212000009392
:103D20000F23FDF74BF8924B96221E2120000093A3
:103D300001950F23FDF742F88E4BAA221E21200089
:103D4000009301950F23FDF739F88B4BBE220093AA
:103D50001E210F2320000195FDF730F8736A4F2BC9
:103D6000C3DC864B01953DE0854B82221E2120005D
:103D700000930F23FDF722F8824B96221E2120008C
:103D8000009301950F23FDF719F87F4BAA221E21FE
:103D90002000009301950F23FDF710F87B4BBE2206
:103DA0001E212000009301950F23FDF707F8706A8C
:103DB00016F0ACF9764916F062F9764916F048F932
:103DC00006230193002302900093BE228C21200041
:103DD0000F33FDF7C3F9F368042B00D085E76323A5
:103DE00001936D4B0093D2220F231E212000FCF77C
:103DF000E5FF7AE7694B822200931E210F23200002
:103E0000FCF7DCFFF368042B00D06EE7624B0195F2
:103E100064E7634B82221E21200000930F23FCF7EE
:103E2000CDFF604B962200931E210F2320000195A9
:103E3000FCF7C4FFF368042B00D056E7564BAA22C8
:103E400000931E210F2320000195FCF7B7FF4CE7DC
:103E5000554B82221E21200000930F23FCF7AEFF5A
:103E6000736AC82101930023822220000093490035
:103E70000F33FDF717F84D4B96221E2120000093BB
:103E800001950F23FCF79AFF494BAA2200931E21AC
:103E90000F2320000195FCF791FF736A4F2B9ADCEA
:103EA000364BBE2200931E210F2320000195FCF704
:103EB00085FF90E73F4B82221E21200000930F23B5
:103EC000FCF77CFF374B96221E21200000930195C2
:103ED0000F23FCF773FF384BAA221E21200000930A
:103EE00001950F23FCF76AFF344BBE2200931E217D
:103EF0000F2320000195FCF761FF736A4F2B12DD41
:103F0000F368012B00D1F0E6043B012B00D8ECE66E
:103F1000632301932A4BE62200931E210F232000E6
:103F2000FCF74CFFE1E6154BD22200931E210F2334
:103F300020000195FCF742FFE2E7C046A83E0210D0
:103F40006834021074440210E0ED0110E8ED011035
:103F50003CFE01104CFE01108CEB01100CDC01103A
:103F600018EE011048EE0110D8370210FCFC0110C9
:103F70002CFD011048FD011078FD011004EF011027
:103F8000A8FD0110D8FD011004FE011030FE011043
:103F90003480373CC217E63EC4EF0110F0ED01104B
:103FA00078EE0110ACEE0110DCEE011018FC0110EF
:103FB00048FC011074FC0110A4FC0110D4FC011099
:103FC000C83C0210F0B504006327C800401A3E49FF
:103FD000800083B0401815001E0000900F231422AB
:103FE000142120000197FCF7E9FE002D3ED1632546
:103FF000364B32221E212000009301950F23FCF73F
:10400000DDFE334B46221E212000009301950F2335
:10401000FCF7D4FE2F4B5A221E212000009301955D
:104020000F23FCF7CBFE2C4B6E221E2120000093A9
:1040300001950F23FCF7C2FE284B82221E2120008F
:10404000009301950F23FCF7B9FE254BA0220093A6
:104050001E210F2320000195FCF7B0FEF823F35832
:10406000052B2ED81F4A9B00D3589F4696211E4BE6
:104070001422009320000F2301974900FCF79EFEB5
:10408000B5E763230193194B0093A0220F23C821A6
:104090002000FCF793FE03B0F0BD63230193144BA3
:1040A000F2E763230193134BEEE763230193124B73
:1040B000EAE763230193114BE6E763230193104B77
:1040C000E2E7104B0195DFE7A83E0210043A021028
:1040D000BC3B0210EC3B02101C3C02104C3C02109A
:1040E000C81E021028DC0110D8370210A0370210B9
:1040F000B83702105C370210703702108037021098
:1041000090370210E839021070B5632504001600DC
:10411000CB005B1A36499B0082B05B181422142135
:10412000009301950F23FCF749FE324B32221E21EA
:104130002000009301950F23FCF740FE2E4B7822C0
:104140001E212000009301950F23FCF737FE2B4B17
:10415000962200931E210F2320000195FCF72EFECE
:104160000223320001959A4327D0254B46221E2177
:10417000200000930F23FCF721FE224B5A221E2120
:104180002000009301950F23FCF718FE1E4B96228A
:1041900000930A210F2320000195FCF70FFE012E4A
:1041A00009DD63230193194BB42200931E210F23D1
:1041B0002000FCF703FE02B070BD154B20000093F9
:1041C00046220F231E21FCF7F9FD124B200000931D
:1041D0005A220F231E210195FCF7F0FD0A4B78228D
:1041E00000930A210F2320000195FCF7E7FDD6E795
:1041F000A83E02102C36021044370210503702102D
:10420000B8360210E43602108CEB0110143702109D
:104210006036021090360210F0B5DE4657464E4624
:104220004546E0B58BB014AE737817AF9A065B06BF
:10423000D20FDB0F08920993B3787D780493F3785B
:104240004621059333790400069373790793AB06EF
:104250006D06DB0FED0F9946FCF73CFFEB005D1B95
:104260000835EBB2984663258C21E64B46229A46E8
:1042700020000195009349004346FCF79FFDBB7960
:1042800096210193022346229B4620000093490079
:104290004346FCF707FE4B464A46DB009B1A0833B1
:1042A000DBB29846D221D84B462299462000019590
:1042B000009349004346FCF781FDFB79DC21019323
:1042C0005B4646222000009349004346FCF7EAFD86
:1042D000B9213B782000DB06DA0FD3009B1ACB4ACA
:1042E0000833DBB20195009249006422FCF766FDB9
:1042F0009621C74B782298462000019500934900EB
:104300000A23FCF75BFD7B788C21DB07DA0F1B0FA0
:104310009B1A524608332000DBB2019500924900F7
:104320007822FCF74BFD7B78A0219B07DA0FD300A6
:104330009B1A4A4608332000DBB2019500924900DF
:104340007822FCF73BFD96217B7820001B07DA0FD3
:10435000D3009B1AAF4A0833DBB2019500924900A3
:104360006422FCF72BFD7B7896215B07DA0FD300E4
:104370009B1A424608332000DBB2019500924900A7
:104380008C22FCF71BFDDC213B782000DB07DA0FD9
:104390001B0F9B1AA04A0833DBB20195009249001B
:1043A0008222FCF70BFDD2213B7820009B07DA0F1D
:1043B000D3009B1A994A0833DBB201950092490059
:1043C0008722FCF7FBFCE6213B7820005B07DA0F35
:1043D000D3009B1A924A0833DBB201950092490040
:1043E0007D22FCF7EBFCB4213B7820001B07DA0FA1
:1043F000D3009B1A8B4A0833DBB201950092FF3140
:104400006E22FCF7DBFCE1217B782000DB06DA0F73
:10441000D3009B1A844A0833DBB20195009249000D
:104420005A22FCF7CBFCB4212000FCF753FE2422D7
:104430006B469B1819785346CF007F1A8C2108379A
:10444000FFB220000195009390323B004900FCF739
:10445000B5FCB379962101935B46B422200000930A
:1044600049003B00FCF71EFD20226B469B181A7882
:10447000D2214B46D700BF1A0837FFB2B422200022
:104480000195009349003B00FCF798FCF379DC218F
:1044900001935B46B4222000009349003B00FCF7E7
:1044A00001FDB92133782000DB06DA0FD3009B1A17
:1044B000564A0833DBB2019500924900D222FCF73C
:1044C0007DFC43469621E622200001950093490099
:1044D0000A23FCF773FC73788C21DB07DA0F1B0FC0
:1044E0009B1A524608332000DBB201950092490026
:1044F000E622FCF763FC7378A0219B07DA0FD30058
:104500009B1A4A4608332000DBB20195009249000D
:10451000E622FCF753FC9621737820001B07DA0F84
:10452000D3009B1A3B4A0833DBB201950092490045
:10453000D222FCF743FC737896215B07DA0FD30095
:104540009B1A424608332000DBB2019500924900D5
:10455000FA22FCF733FCDC2133782000DB07DA0F8A
:104560001B0F9B1A2C4A0833DBB2019500924900BD
:10457000F022FCF723FCD221337820009B07DA0FCE
:10458000D3009B1A254A0833DBB2019500924900FB
:10459000F522FCF713FCE621337820005B07DA0FE5
:1045A000D3009B1A1E4A0833DBB2019500924900E2
:1045B000EB22FCF703FCB421337820001B07DA0F51
:1045C000D3009B1A174A0833DBB201950092FF31E2
:1045D000DC22FCF7F3FBE12173782000DB06DA0F25
:1045E000D3009B1A104A0833DBB2019500924900B0
:1045F000C822FCF7E3FBA0239B01E5180B4BE61850
:1046000016E0C04640DC011044DC011048DC01101B
:104610004CDC011050DC011054DC011058DC01109E
:104620005CDC011060DC011064DC01100029010079
:104630002800013581225521FF3515F0C1FFB54213
:10464000F6D10A255E26F227200001950096CA239E
:1046500044228021FCF76CFA200001950096CA23C1
:10466000A822E421FCF764FA200001950097CA23F0
:10467000A822E421FCF75CFA86222000019500972D
:10468000CA2380215200FCF753FA862220000195AC
:104690000097362380215200FCF74AFA200001954A
:1046A00000973623A8221C21FCF742FA200001952E
:1046B00000963623A8221C21FCF73AFA2000019527
:1046C0000096362344228021FCF732FA049BCC3634
:1046D0009AB291461A1D26239046059AFF3391B24D
:1046E0008A46B61A9B1A0535B6B29BB232004146CD
:1046F0002000019500934346FCF71AFA51463237E1
:104700007F1A4946BFB24B1E3A0041462000019530
:1047100000979BB2FCF70CFA49468B1E99B22A23EC
:1047200088465146FF335B1A9BB23A00414620004F
:10473000019500934346FCF7FBF9494632002000FF
:10474000CB1C019541460096FCF7F2F90699942698
:10475000282388B28146881C824607997600FF3359
:104760005B1A761AB6B298B280465346320001956B
:1047700000908FB220005146FCF7DAF99323012014
:104780005B00DF1BBFB24844834603003A0051463A
:10479000200001950097FCF7CBF940464B463A00C4
:1047A0004946019500902000FCF7C2F95B463200B3
:1047B0004946200001950096FCF7BAF9AA2120008D
:1047C0004900FCF787FCB42120004900FCF782FC7B
:1047D0000226AA22049D20007F3D019500960F230A
:1047E00014215200FCF75EFB7F235B429C46059A36
:1047F0000F23624490460192B422142152002000FB
:104800000096FCF74FFB280015F080FC051C404685
:10481000404315F07BFC291C071C281C15F02FFCBD
:10482000011C381C15F014FC15F0D0FC14F060F8D5
:1048300014F052F8011C5B4815F00DFC15F0C6FC95
:1048400002000B000020584918F09EFD14F044F8B7
:10485000011C071C281C15F012FC15F021FD8146D7
:10486000404615F053FC391C15F009FC15F018FDF5
:104870004C49051C484615F0EEFB07230027AA22E9
:104880009846029001932000083352007821009747
:10489000FCF764FC4349281C15F0DDFB4346B422B9
:1048A0000290019320007821009708335200FCF712
:1048B00055FCAA228C21069D20007F3D0195009683
:1048C0000F2352004900FCF7EDFA7F235B429C4620
:1048D0000799B4226144894601918C210F2352002B
:1048E000490020000096FCF7DDFA280015F00EFCC8
:1048F000051C4846404315F009FC291C061C281CD1
:1049000015F0BDFB011C301C15F0A2FB15F05EFC80
:1049100013F0EEFF13F0E0FF011C224815F09BFBA3
:1049200015F054FC02000B0000201F4918F02CFD6C
:1049300013F0D2FF011C061C281C15F0A0FB15F07B
:10494000AFFC8246484615F0E1FB311C15F097FBA1
:1049500015F0A6FC1349051C504615F07CFB434698
:10496000AA22BE2102900193200008335200009732
:104970004900FCF7F3FB0B49281C15F06CFB434680
:10498000B422BE2102900193200000970833520008
:104990004900FCF7E3FB0BB0F0BCBB46B246A946AE
:1049A000A046F0BD0000A0420000F03FF0B5DE469A
:1049B000574645464E46E0B5632583469A46CB00AA
:1049C0005B1A1400784A9B0089B09B1814211422AA
:1049D000009301950F23FCF7F1F9744B1422F02199
:1049E0005846009301950F23FCF7E8F98C21704B92
:1049F0003222009358460F2301954900FCF7DEF957
:104A000053461B79002C16D1002B69D16323EB216F
:104A10000193684B4622009358460F234900FCF748
:104A2000CDF953461B79062B01D900F0F0FB624A01
:104A30009B00D3589F46062B0ED8604A9B00D35844
:104A40009F466323962101935D4B4622009358466F
:104A50000F234900FCF7B2F963258C21594B6422DE
:104A6000009358460F2301954900FCF7A7F9012C44
:104A700045D053469B78002B2ED163330193524B84
:104A8000962178225846009349000F23FCF796F9A7
:104A900063258C214D4B96225846009349000F23E5
:104AA0000195FCF78BF953461B7D9121019301235E
:104AB000AA22009358460E334900FCF7F3F9022C62
:104AC0002DD053461B7A002B3DD109B0F0BCBB461C
:104AD000B246A946A046F0BD632301933C4BCFE705
:104AE0008C213C4B4622009358460F2301954900E8
:104AF000FCF764F953461B79052B94D886E7534697
:104B00009B780195012B00D1B2E2CD21294B78226F
:104B1000009358460F234900FCF750F9A9E7534684
:104B20001B7D002B00D01BE26323A5210193214BA9
:104B3000AA22009358460F234900FCF73FF9534639
:104B40001B7A002BC1D063258C21234BC8220093F4
:104B500058460F2301954900FCF730F953461C7D58
:104B60001B19A633FF331B78DA0700D5B8E29A0782
:104B700000D5C8E25A0700D5D9E21A0700D5EAE203
:104B8000DA0600D5FBE29A0600D50CE35A0600D5FA
:104B90001DE35BB2002B00DA2BE353460027A0464F
:104BA0005D46059337E0C046A83E0210343D021032
:104BB000F03C02108CEB011068DC011084DC011069
:104BC00068450210FC3C0210C8ED01100C3D0210BB
:104BD000D4ED0110D0420210203D0210591CA82330
:104BE0000D209A1A92B20B00019000922800FBF758
:104BF0009FFFA8231C1B711CA2B2993B01932800A4
:104C00000B0000920137FBF793FF642F00D1A2E065
:104C1000059B1B7D9846059C6421A07CC01913F060
:104C2000FBFA7F23A4465B4261449C464E7DB4441C
:104C3000634606930B0079331C7864331B7842314A
:104C40001800FF310A787F3C7F387F3AB845C5D1DC
:104C500083B29B4681339BB29946A92396B29B1B94
:104C60009AB29046A822931B9AB20D234946280077
:104C7000019307924B4600924246FBF759FFA7214A
:104C800058460D238E1B8030B6B280B28246320069
:104C900049460193009603002800FBF749FF584658
:104CA0000D23079A7F3080B2834601000193009262
:104CB000030032002800FBF73BFF42460D23594614
:104CC0002800019300925346FBF732FF6B461E8B80
:104CD000AA233200A4B282321B1BA72192B29246B1
:104CE0009AB290460F220B1B9BB293465146280066
:104CF0000192009342465346FBF71AFFA6231B1B63
:104D00009AB2914632007F3293B25A4601924A4695
:104D1000514628000092FBF70BFF3200A9237E3298
:104D200092B292465A461C1BA4B2534651462800E2
:104D3000019200944A46FBF7FBFE5A460192424616
:104D4000813651462800B3B200920137FBF7F0FEDE
:104D5000642F00D05CE763249622059B28009A46C6
:104D6000C84B019400931E210F235200FCF726F834
:104D7000A022C54B28000194009352000F231E214E
:104D8000FCF71CF85346187D9B7C6421C01813F077
:104D900043FA51440B0079331C7864331E780223A4
:104DA000AB46AA2299464F7D42317F3EFF310D78B6
:104DB00058460196009314210D335200FCF772F807
:104DC0004B46B4227F3D5200142158460195009372
:104DD0000D33FCF767F8300015F098F9061C280031
:104DE000684315F093F9311C8046301C15F047F9E3
:104DF000011C404615F02CF915F0E8F913F078FD88
:104E000013F06AFD011CA14815F025F915F0DEF933
:104E100002000B0000209E4918F0B6FA13F05CFD6A
:104E2000011C8046301C15F02AF915F039FA061CD1
:104E3000280015F06BF9414615F021F915F030FA0C
:104E40009249051C301C15F006F907230026AA22FA
:104E500098460290019358460833520078210096F4
:104E6000FCF77CF98949281C15F0F5F84346B42273
:104E70000290019358467821009608335200FCF7BF
:104E80006DF94B46AA228C217F3F5846019700932B
:104E900052000D334900FCF705F84B46B4228C2133
:104EA0007F3C520049005846019400930D33FBF7B4
:104EB000F9FF380015F02AF9051C2000604315F0B1
:104EC00025F9291C071C281C15F0D9F8011C381CD1
:104ED00015F0BEF815F07AF913F00AFD13F0FCFC9A
:104EE000011C6A4815F0B7F815F070F902000B00C4
:104EF0000020674918F048FA13F0EEFC011C071C6B
:104F0000281C15F0BCF815F0CBF9051C200015F095
:104F1000FDF8391C15F0B3F815F0C2F95B49041C13
:104F2000281C15F098F84346AA22BE21029001934E
:104F300058460833520000964900FCF70FF95349D0
:104F4000201C15F088F84346B422BE21029001933C
:104F500058460096083352004900FCF7FFF8B4E5C4
:104F60008C214C4BAA22009358460F2301954900EF
:104F7000FBF724FF53461B7D622B00D9A1E5D3E547
:104F8000632396210193444B5846009346220F23F6
:104F90004900FBF713FF2823584600933F4A404936
:104FA000273BFCF77BF957E56323962101933D4BA3
:104FB0005846009346220F234900FBF7FFFE2823A3
:104FC00058460093384A3949273BFCF767F943E5CF
:104FD000632396210193364B5846009346220F23B4
:104FE0004900FBF7EBFE282358460093314A32492B
:104FF000273BFCF753F92FE56323962101932F4BB1
:105000005846009346220F234900FBF7D7FE28237A
:10501000584600932A4A2B49273BFCF73FF91BE5EA
:10502000632396210193284B5846009346220F2371
:105030004900FBF7C3FE282358460093234A24491E
:10504000273BFCF72BF907E5632396210193214BBE
:105050005846009346220F234900FBF7AFFE282352
:10506000584600931C4A1D49273BFCF717F9F3E407
:105070008C21084B7822009358460F234900FBF7F8
:105080009DFEF6E44C3D02105CED01100000A042D4
:105090000000F03FD0420210A44502108C280210FC
:1050A000080A0210B045021094280210C41302101E
:1050B0007045021058340210DC1E02107C450210AC
:1050C000601E021044F101108C4502106034021081
:1050D0009C2802109C450210C01E0210DCFE01102C
:1050E0008C21514BDC22009358460F230195490037
:1050F000FBF764FE53461C7D1B19A633FF331B7858
:105100009A0700D436E5632396210193474BDC22AE
:10511000009358460F234900FBF750FE53461C7D71
:105120001B19A633FF331B785A0700D425E56323E8
:10513000A02101933E4BDC22009358460F234900E7
:10514000FBF73CFE53461C7D1B19A633FF331B782F
:105150001A0700D414E56323AA210193354BDC22FE
:10516000009358460F234900FBF728FE53461C7D49
:105170001B19A633FF331B78DA0600D403E563233B
:10518000D22101932C4BDC22009358460F23490077
:10519000FBF714FE53461C7D1B19A633FF331B7807
:1051A0009A0600D4F2E46323C8210193234BDC2246
:1051B000009358460F234900FBF700FE53461C7D21
:1051C0001B19A633FF331B785A0600D4E1E463238E
:1051D000BE2101931A4BDC22009358460F2349004D
:1051E000FBF7ECFD53461C7D1B19A633FF331B78E0
:1051F000CFE46323B4210193124BDC220093584681
:105200000F234900FBF7DAFD53461C7DC5E46323F9
:105210008C2101930C4B6422009358460F234900C4
:10522000FBF7CCFD25E4C04654DC011058DC01102E
:105230005CDC011060DC011048DC011064DC011052
:1052400044DC011040DC0110FC3C0210F0B5DE46ED
:105250004E4645465746E0B5632589B00493CB00DA
:105260005B1A1400654A9B009B18009314220F23BD
:10527000142101958146FBF7A1FD0195022C00D177
:1052800047E35F4B1422F021484600930F23FBF7BE
:1052900095FD96225B4B1E21009348460F230195F6
:1052A0005200FBF78BFD002C00D120E2049A13780A
:1052B000062B00D12AE29378002B00D113E263235E
:1052C0000193514BA022009332210F2348465200F4
:1052D000FBF774FD049BDB78002B00D02FE36333D6
:1052E00001934A4BA02200933C210F2348465200D1
:1052F000FBF764FD63259622454B8C2100934846BD
:105300000F2301955200FBF759FD012C00D1CAE291
:10531000049B1B78052B00D115E300D9BCE2032BBD
:1053200001D100F002FC042B0AD163230193394B15
:10533000A0220093A0210F2348465200FBF73EFD18
:10534000632596229121344B4846009352000F2347
:1053500049000195FBF732FD049BA0221B7D96219D
:10536000019302234846009352000D334900FBF796
:1053700099FD022C00D1CCE3282629230924FF36ED
:1053800000933200253B042148460194FBF7D0FBF3
:10539000049B1D78052D00D1FEE200D9ECE1032D20
:1053A00000D113E3042D1ED1A823A82205214846CD
:1053B00001940093EC33FBF7BBFB0824BF23BF220F
:1053C00000930521D53348460194FBF7B1FB9123A7
:1053D0009122009304330194FF3305214846FBF7E3
:1053E000A7FB049B1D78987C2E001B189A7D002338
:1053F0007F3A9B461F0006921EE0C046A83E021060
:10540000C8F00110E0F00110A0DC01105CDC01101C
:10541000E8F00110F8F001100C3D021001239C4649
:10542000E3445B460237BFB2C82B00D1B1E0049B16
:10543000987C1E78059B06935844C821013012F0D1
:10544000EBFE049B9C467F235B4261449C464C7D63
:10545000A444634605930B00DD331D783B1D9BB2CE
:1054600098467F3D062E00D160E17E1DB6B2A8248D
:10547000ADB2631B9BB29A460B230193534652462F
:105480003100484600933300FBF752FB6B460F2177
:105490009B8A069A0793A21AE41AA4B233000191D8
:1054A0004846414692B20094FBF742FB049B1B7DA9
:1054B0005B45B3D15146BB1D9AB2A923009111009F
:1054C0005C1BA4B29E3B4846019313002200069148
:1054D000FBF72EFBA7220B23551BADB22A00484633
:1054E0000699019300953300FBF722FB0B225046EF
:1054F00043464146019200902A004846FBF718FBBC
:105500000B22A725019200942200AA2433004146D1
:105510004846FBF70DFB0F20079AFE1DAB1AA41A95
:10552000B6B2A4B29BB2A62531002200019000932E
:1055300048463300FBF7FCFA0F20079A3100AD1AFA
:10554000ADB243462A00019000954846FBF7F0FAB9
:10555000A9230F20079AFE1C9B1AB6B29BB22A0001
:1055600031000190009348463300FBF7E1FA0F2029
:10557000069B01902200310048460094FBF7D8FAC0
:1055800001239C46E3445B460237BFB2C82B00D0E0
:105590004DE7049B1B78052B00D15BE200D9FEE0B0
:1055A000032B00D130E2042B54D16324CD21E84BEE
:1055B00050224846009349000F230194FBF7FEFB5D
:1055C000CE239B009846424606270226CD21049B07
:1055D00048469A5849000F230592029201976E227D
:1055E0000096FBF7BBFDEB21DA4D0F236E224846F8
:1055F000490001940095FBF7E1FBCD21D64BD22267
:105600004846009349000F230194FBF7D7FB42461D
:10561000049BD248995814F018FD14F0D7FD0200ED
:105620000B000020002117F067FE13F055F9CD2183
:105630000F23F02202904900484601970096FBF79D
:105640008DFDEB210F23F02248460194009549007F
:10565000FBF7B4FB6324AF22C14B4846019400938F
:105660001E210F235200FBF7A9FBAF228C21BD4B5B
:1056700048460194009352000F234900FBF79EFB1C
:10568000049CC821A37C207D0225C018013012F0A3
:10569000C3FD2278A446063A53425A417E23614410
:1056A00052429A430B00DD331C784B7D7F32A41AA3
:1056B0009A1A0192AF2248460F238C21009552007E
:1056C000FBF7F0FBAF22CD210F2348460194009554
:1056D00052004900FBF7E6FB09B0F0BCBB46B246FE
:1056E000A946A046F0BD633301939F4BEAE5A02293
:1056F0009E4B5200009314210F2348460195FBF75F
:105700005DFB049A1378062B00D0D4E59378002B28
:1057100000D10FE263230193954BA0220093322125
:105720000F2348465200FBF749FBE3E5A631FF3162
:105730000B787E1D9A009B185B000533DBB201934A
:10574000B223B6B20093B222330041464846FBF77B
:10575000EFF9049B1B78062B00D088E62A2C00DC8E
:1057600085E609330193ED330093FC223300414673
:105770004846FBF7DDF97AE6062D00D033E6CA236A
:1057800032005B000521484601940096FBF7D0F9F2
:1057900008230193F4330093FC2298331DE6062B73
:1057A00000D057E76324CD21724B50224846009326
:1057B00049000F230194FBF701FBCE23049A9B00C1
:1057C000D05814F003FD13F0C3FB13F085F8042741
:1057D0000226CD210F236E220290490048460197F0
:1057E0000096FBF7BBFCE1215A4D0F236E22484681
:1057F000490001940095FBF7E1FACD215E4B96221A
:105800004846009349000F230194FBF7D7FACF23B2
:10581000049A9B00D05814F0D9FC13F099FB13F0B4
:105820005BF8CD210F23B42202904900484601972E
:105830000096FBF793FCE1210F23B4224846019424
:1058400000954900FBF7BAFA4C4B0194CD2148462C
:105850000093DC220F234900FBF7B0FAD023049A0F
:105860009B00D05814F0B2FC13F072FB13F034F824
:10587000CD2102900F234846FA2201970096490055
:10588000FBF76CFCE1210F23FA22484601940095B6
:105890004900FBF793FADDE6062B00D050E56323C1
:1058A0000193374B44E5049E822133784846063BFA
:1058B0005A1E934107225B4213402C4A0833009240
:1058C000A02201955200FBF779FA3378052B3AD0E4
:1058D00032D8032B00D128E1042B00D125E5632326
:1058E000962291210193274B4846009352000F23A3
:1058F0004900FBF763FA049BA0221B7D96210193CC
:1059000002234846009352000D334900FBF7CAFAC0
:1059100032E51D4B4846009314220F23F021FBF77C
:105920004DFA9622194B1E21009348460F230195EC
:105930005200FBF743FAB9E4062BB0D0CFE763235C
:105940000193134BCEE463230193124BF0E4C04662
:1059500038F10110A4DC011090FE01100000C842D3
:1059600020F101102CF1011054DC01108CEB01101E
:1059700044DC0110C4FE0110CCFE0110D4FE011065
:1059800018F101100C3D0210343D0210E0F001103E
:1059900060DC011010F10110A82301940093A822EB
:1059A00005214846EC33FBF7C3F80824E823E82236
:1059B00000930521AC3348460194FBF7B9F86823FE
:1059C00000932D3368220194FF3306E5A82348464F
:1059D00001940093A8220521EC33FBF7A9F80824D1
:1059E000BF2348460093BF2205210194D533FBF71E
:1059F0009FF8912300930433912205214846019496
:105A0000FF33FBF795F8D1E76324CD214B4B484694
:105A1000009350220F2301944900FBF7CFF9CE23C6
:105A2000049A9B00D358CD21029304230193023B97
:105A3000484600936E220D334900FBF78FFBE121AE
:105A40003F4B6E22009348460F2301944900FBF719
:105A5000B5F9FFE56324CD213A4B50224846009327
:105A600049000F230194FBF7A9F9CE23049A9B0068
:105A7000D05814F0ABFB13F06BFA12F02DFF042793
:105A80000226CD210F236E2202904900484601973D
:105A90000096FBF763FBE121294D0F236E22484658
:105AA000490001940095FBF789F9CD21264B8C2202
:105AB0004846009349000F230194FBF77FF9CD215D
:105AC000224BA0224846009349000F230194FBF784
:105AD00075F9CF23049A9B00D05814F077FB13F08C
